S012000046696E616C46696E616C2E737265633E
S11300000C9418010C9439010C9439010C943901A5
S11300100C9439010C9439010C9439010C94390174
S11300200C9439010C9439010C9439010C94390164
S11300300C9439010C9439010C948F010C943901FE
S11300400C94D3010C94EC010C9405020C941E0244
S11300500C9439010C9439010C9439010C94390134
S11300600C9439010C9465010C9439010C943B01F6
S11300700C9439010C9439010C9439010C94390114
S11300800C9439010C9439010C9439010C94390104
S11300900C9439010C9439010C9439010C943901F4
S11300A00C9439010C9439010C9439010C943901E4
S11300B00C9439010C9439010C9439010C943901D4
S11300C00C9439010C9439010C9439010C943901C4
S11300D00C9439010C9439010C9437020C944E029F
S11300E00C9439010C9439010C9439010C943901A4
S11300F00C9439010C9439010C9439010C94390194
S11301000C9439010C9439010C9439010C94390183
S11301100C9439010C9439010C9439010C94390173
S11301200C9439010C9439010C9439010C94650236
S11301300C9480020C9439010C9439010C9439010B
S11301400C94390107634236B79BD8A71A3968560D
S113015018AEBAAB558C1D3CB7CC5763BD6DEDFDE5
S1130160753EF6177231BF000000803FE30BB60BFB
S1130170BB0BB60BC00BB60BC50BB60BCA0BB60B41
S1130180CF0BB60BD40BB60BD90BB60BB60BB60B09
S1130190B60BB60BB60BB60BB60BB60BB60BB60B53
S11301A0B60BB60BB60BB60BB60BB60BDE0B0800D4
S11301B00000BE922449123EABAAAA2ABECDCCCCE2
S11301C04C3E00000080BEABAAAAAA3E000000007C
S11301D0BF000000803F0000000000084178D3BB4E
S11301E04387D1133D190E3CC3BD4282AD2B3E68FB
S11301F0EC8276BED98FE1A93E4C80EFFFBE01C4EC
S1130200FF7F3F00000000000C94D90B0C94C00B3E
S11302100C94CA0B0C94E30B0C94B60B0C94D40BF7
S11302200C94CF0B0C94C50B0C94DE0B0C94BB0BF1
S113023011241FBECFEFCDBFDFE3DEBF00E00CBF54
S113024010E2A0E0B0E2ECE2FCE100E00BBF02C08F
S113025007900D92A631B107D9F720E2A6E1B0E2EA
S113026001C01D92A439B207E1F70E94DF040C9487
S1130270140E0C9400001F920F920FB60F921124CB
S11302800BB60F922F933F934F935F936F937F938C
S11302908F939F93AF93BF93EF93FF938AE290E280
S11302A00E943E09FF91EF91BF91AF919F918F9171
S11302B07F916F915F914F913F912F910F900BBE62
S11302C00F900FBE0F901F9018951F920F920FB6AC
S11302D00F9211240BB60F922F933F934F935F937A
S11302E06F937F938F939F93AF93BF93EF93FF93FA
S11302F08AE290E20E946509FF91EF91BF91AF916C
S11303009F918F917F916F915F914F913F912F9129
S11303100F900BBE0F900FBE0F901F9018951F9259
S11303200F920FB60F9211240BB60F928F939F93D7
S1130330EF93FF93E4E8F6E080818A7F8083E4E032
S1130340F6E080818A7F8083809126209091272007
S113035001968093262090932720809116209091D7
S113036017200196809316209093172080911820CF
S113037090911920019680931820909319208091D0
S11303802220909123200196809322209093232071
S1130390FF91EF919F918F910F900BBE0F900FBE25
S11303A00F901F9018951F920F920FB60F92112461
S11303B00BB60F928F93EF93FF93E4E8F6E08081FE
S11303C081608083FF91EF918F910F900BBE0F900E
S11303D00FBE0F901F9018951F920F920FB60F9299
S11303E011240BB60F928F93EF93FF93E4E8F6E09A
S11303F0808184608083FF91EF918F910F900BBE79
S11304000F900FBE0F901F9018951F920F920FB66A
S11304100F9211240BB60F928F93EF93FF93E4E0A6
S1130420F6E0808181608083FF91EF918F910F903E
S11304300BBE0F900FBE0F901F9018951F920F9236
S11304400FB60F9211240BB60F928F93EF93FF9375
S1130450E4E0F6E0808184608083FF91EF918F91E6
S11304600F900BBE0F900FBE0F901F9018951F9208
S11304700F920FB60F9211248F939F938091202097
S113048090912120019680932020909321209F9188
S11304908F910F900FBE0F901F9018951F920F927F
S11304A00FB60F9211248F939F9380911E209091E9
S11304B01F20019680931E2090931F209F918F915F
S11304C00F900FBE0F901F9018951F920F920FB6AA
S11304D00F9211248F939F9380911820909119204B
S11304E00B973CF081E080931B201092182010920F
S11304F019209F918F910F900FBE0F901F90189508
S11305001F920F920FB60F9211248F939F93809195
S11305101A20811107C0109216201092172081E032
S113052080931A2080911C2090911D200196809325
S11305301C2090931D209F918F910F900FBE0F90C0
S11305401F90189584EC99E08093260890932708CF
S113055084E08093000820E030E44CE155E46091AD
S11305600E2070910F2080911020909111200E94F4
S1130570C3080E944507609328087093290820E067
S113058030E44CE155E46091122070911320809185
S11305901420909115200E94C3080E94450760937F
S11305A02A0870932B0820E030E44CE155E4609174
S11305B00A2070910B2080910C2090910D200E94B4
S11305C0C3080E94450760932C0870932D0820E00F
S11305D030E44CE155E4609106207091072080914D
S11305E00820909109200E94C3080E944507609347
S11305F02E0870932F0885E18093070882E080938A
S1130600060880E580930A0620E220930B0681E029
S11306108093140680931506809316069AE09093AF
S1130620090630E130938A0620938B068093940662
S1130630809395069093890687E08093A20008959D
S11306406F927F928F92AF92CF92EF92FF920F931D
S1130650CF93DF9300D01F92CDB7DEB7BE016F5F9B
S11306607F4F80E090E00E94470B0F2EFAE26F2E3E
S1130670F0E27F2EF02D80E790E2F30186879787E2
S113068080E590E2808B918B29813A814B815C815A
S11306901F92812C0F2EF3E0AF2EF02DC12C0F2EC4
S11306A0F0E6EF2EF12CF02D04E160ECC3010E9482
S11306B08F0A40E260E2C3010E94300AF301148E03
S11306C082E0838F68E1C3010E94F609E2EAF0E068
S11306D08081836080830F902496CDBFDEBFDF913D
S11306E0CF910F91FF90EF90CF90AF908F907F902C
S11306F06F9008958FE0809380069AE0909384062B
S113070090EF90932006909324068093000608951A
S11307100F931F93CF93DF93EC018130910509F47C
S113072043C08230910509F45EC0892B09F079C079
S113073007E018E0F80180818560808320E030E4E0
S11307404CE155E460910E2070910F2080911020AF
S1130750909111200E94C3080E94450760932808C5
S11307607093290820E030E44CE155E460911220B4
S11307707091132080911420909115200E94C30839
S11307800E94450760932A0870932B08F801808122
S1130790806180838091242090912520019680930C
S11307A02420909325203DC007E018E0F8018081C3
S11307B08B7E808320E030E44CE155E460910E2090
S11307C070910F2080911020909111200E94C308F5
S11307D00E9445076093280870932908F8018081D6
S11307E08F7C80831EC007E018E0F80180818E7E34
S11307F0808320E030E44CE155E460911220709154
S1130800132080911420909115200E94C3080E9407
S1130810450760932A0870932B08F80180818F7C28
S113082080831092262010922720C0932820D093F2
S11308302920DF91CF911F910F910895CF92DF92DC
S1130840EF92FF9260911E2070911F20072E000CE2
S1130850880B990B0E9476079B01AC0160E070E461
S113086082E193E40E9427062DEC3CEC4CE45DEB22
S11308700E94C3080E94130720E030E040E85FE3D1
S11308800E9428069B01AC0160E070E080E090E4E7
S11308900E94990620E030E040E85FE30E942706CA
S11308A02FE832EC45EF5CE30E94C3089B01AC01E6
S11308B060910E2070910F20809110209091112052
S11308C00E9427066B017C0160930E2070930F2019
S11308D080931020909311208091202090912120CA
S11308E066E970E0681B790B072E000C880B990BE6
S11308F00E9476072DEC3CEC4CE45DEB0E94C308AF
S11309000E94130720E030E040E85FE30E942806DD
S11309109B01AC0160E070E080E090E40E949906E5
S113092020E030E040E85FE30E9427062FE832EC45
S113093045EF5CE30E94C3089B01AC016091122067
S11309407091132080911420909115200E94270605
S11309506093122070931320809314209093152099
S113096020E030E44CE155E4C701B6010E94C3081D
S11309700E944507609328087093290820E030E41A
S11309804CE155E460911220709113208091142061
S1130990909115200E94C3080E94450760932A087D
S11309A070932B08109220201092212010921E2068
S11309B010921F20FF90EF90DF90CF9008954F92F8
S11309C05F926F927F928F929F92AF92BF92CF92DB
S11309D0DF92EF92FF920F931F93CF93DF93F894DC
S11309E00E9420030E947A030E94A2027894C7E026
S11309F0D8E004E016E06894992491F80F2EF4E20C
S1130A00AF2EF6E0BF2EF02D0F2EF0EF8F2EF02D2F
S1130A10C0900E20D0900F20E0901020F090112074
S1130A204090122050901320609014207090152054
S1130A302DEC3CEC4CE45DE3C701B6010E94940646
S1130A4088230CF4D5C02DEC3CEC4CE45DE3C301ED
S1130A50B2010E94940688230CF4CAC08091282015
S1130A60909129208130910509F48AC08230910542
S1130A7009F4A2C0892BE1F680911A208130D9F4BF
S1130A8080911620909117204A97ACF080911C20F9
S1130A9090911D2040975CF080911C2090911D2026
S1130AA08D972CF4888180648883F50110821092DC
S1130AB01C2010921D2080911A20813069F48091AD
S1130AC0162090911720C3973CF088818F738883F8
S1130AD0F501808210921A2080911B20813049F404
S1130AE0109218201092192088818F7C888390920C
S1130AF01B2080911B20823099F4809118209091C2
S1130B00192006976CF0F8018081892580838881FB
S1130B1080618883109218201092192010921B2053
S1130B2080912220909123200A9734F01092222061
S1130B30109223200E941E04809126209091272049
S1130B40883E934054F0809124209091252080FD8C
S1130B5004C081E090E00E94880380912620909157
S1130B602720883E93400CF453CF80912420909109
S1130B70252080FF4DCF82E090E00E94880348CF7B
S1130B8080911A20813059F4809116209091172079
S1130B90C3972CF088818F73888310921A208091D8
S1130BA01E2090911F20863894420CF431CF80E0AF
S1130BB090E00E9488032CCF80911A20813059F450
S1130BC08091162090911720C3972CF088818F7301
S1130BD0888310921A2080912020909121208832BD
S1130BE093420CF415CF80E090E00E94880310CF6C
S1130BF08FEA809324068AE097EDA3E2BDE3809315
S1130C000E2090930F20A0931020B0931120809376
S1130C10122090931320A0931420B0931520E4E89D
S1130C20F6E080818A7F808380E090E0DF91CF913D
S1130C301F910F91FF90EF90DF90CF90BF90AF90F6
S1130C409F908F907F906F905F904F900895505831
S1130C50BB27AA270E943F060C9413080E9405088C
S1130C6038F00E940C0820F039F49F3F19F426F460
S1130C700C94DB070EF4E095E7FB0C94D507E92F01
S1130C800E94240858F3BA1762077307840795076C
S1130C9020F079F4A6F50C9446080EF4E0950B2E9A
S1130CA0BA2FA02D0B01B90190010C01CA01A001BA
S1130CB01124FF27591B99F0593F50F4503E68F115
S1130CC01A16F040A22F232F342F4427585FF3CF56
S1130CD0469537952795A795F0405395C9F77EF427
S1130CE01F16BA0B620B730B840BBAF09150A1F070
S1130CF0FF0FBB1F661F771F881FC2F70EC0BA0FF6
S1130D00621F731F841F48F4879577956795B7957D
S1130D10F7959E3F08F0B0CF9395880F08F0992778
S1130D20EE0F9795879508950E94B10708F481E026
S1130D3008950E94AD060C9413080E940C0858F004
S1130D400E94050840F029F45F3F29F00C94D50770
S1130D5051110C9447080C94DB070E94240868F393
S1130D609923B1F3552391F3951B550BBB27AA2760
S1130D7062177307840738F09F5F5F4F220F331F9A
S1130D80441FAA1FA9F335D00E2E3AF0E0E832D062
S1130D9091505040E695001CCAF72BD0FE2F29D065
S1130DA0660F771F881FBB1F261737074807AB0737
S1130DB0B0E809F0BB0B802DBF01FF2793585F4FAC
S1130DC03AF09E3F510578F00C94D5070C944708EF
S1130DD05F3FE4F3983ED4F3869577956795B7958E
S1130DE0F7959F5FC9F7880F911D9695879597F999
S1130DF00895E1E0660F771F881FBB1F6217730712
S1130E008407BA0720F0621B730B840BBA0BEE1F26
S1130E1088F7E095089529F416F00C94D5070C94FE
S1130E2046080C94DB070E942C08A8F39638A0F718
S1130E3007F80F92E8942BE33AEA48EB5FE70E9445
S1130E40D9080F920F920F924DB75EB70F920E947E
S1130E508F08E4E4F1E00E94DE074F915F91EF9187
S1130E60FF91E595EE1FFF1F49F0FE57E068442708
S1130E70EE0F441FFA95E1F74195550B0E9459086E
S1130E800F9007FE0C944D0808950E942C0888F0DA
S1130E909F5798F0B92F9927B751B0F0E1F0660F3A
S1130EA0771F881F991F1AF0BA95C9F714C0B1307B
S1130EB091F00E944608B1E008950C944608672F0B
S1130EC0782F8827B85F39F0B93FCCF386957795AA
S1130ED06795B395D9F73EF4909580957095619593
S1130EE07F4F8F4F9F4F0895E89409C097FB3EF4BE
S1130EF090958095709561957F4F8F4F9F4F992363
S1130F00A9F0F92F96E9BB279395F69587957795E0
S1130F106795B795F111F8CFFAF4BB0F11F460FFA0
S1130F201BC06F5F7F4F8F4F9F4F16C0882311F0F8
S1130F3096E911C0772321F09EE8872F762F05C00C
S1130F40662371F096E8862F70E060E02AF09A95A7
S1130F50660F771F881FDAF7880F9695879597F99C
S1130F600895990F0008550FAA0BE0E8FEEF161636
S1130F701706E807F907C0F012161306E407F50789
S1130F8098F0621B730B840B950B39F40A2661F0FD
S1130F90232B242B252B21F408950A2609F4A140A0
S1130FA0A6958FEF811D811D089597F99F6780E8AD
S1130FB070E060E008959FEF80EC0895DF93CF9395
S1130FC01F930F93FF92EF92DF927B018C01689441
S1130FD006C0DA2EEF010E94D608FE01E894A5911E
S1130FE02591359145915591A6F3EF010E943F0655
S1130FF0FE019701A801DA9469F7DF90EF90FF9062
S11310000F911F91CF91DF91089500240A94161631
S1131010170618060906089500240A9412161306E2
S1131020140605060895092E0394000C11F4882370
S113103052F0BB0F40F4BF2B11F460FF04C06F5F8C
S11310407F4F8F4F9F4F089557FD9058440F551F62
S113105059F05F3F71F04795880F97FB991F61F036
S11310609F3F79F087950895121613061406551FAD
S1131070F2CF4695F1DF08C0161617061806991F19
S1131080F1CF86957105610508940895E894BB270E
S113109066277727CB0197F908959B01AC0160E09F
S11310A070E080E89FE30C9499060C94D5070C94A7
S11310B030090E942C08D8F39923C9F3940F511DC9
S11310C0A3F39150504094F059F0882332F0660F06
S11310D0771F881F91505040C1F79E3F51052CF750
S11310E0880F911D9695879597F908955F3FACF009
S11310F0983E9CF0BB27869577956795B79508F43D
S1131100B1609395C1F7BB0F58F711F460FFE8CFB6
S11311106F5F7F4F8F4F9F4FE3CF0C944708FA01C7
S1131120DC01AA0FBB1F9B01AC01BF5728F4222787
S113113033274427507820C0B75190F4AB2F0024B4
S1131140469537952795011CA395D2F3002071F09D
S1131150220F331F441FB395DAF30ED00C942706E5
S113116061307105A0E88A07B94630F49B01AC01EF
S11311706627772788279078309621F0208331835B
S11311804283538308950E94D6080C9413080E9446
S1131190050838F00E940C0820F0952311F00C94F7
S11311A0D5070C94DB0711240C9447080E942408EB
S11311B070F3959FC1F3950F50E0551F629FF001A6
S11311C0729FBB27F00DB11D639FAA27F00DB11DBF
S11311D0AA1F649F6627B00DA11D661F829F222748
S11311E0B00DA11D621F739FB00DA11D621F839FCF
S11311F0A00D611D221F749F3327A00D611D231FA5
S1131200849F600D211D822F762F6A2F11249F57F2
S113121050409AF0F1F088234AF0EE0FFF1FBB1FF5
S1131220661F771F881F91505040A9F79E3F5105B4
S113123080F00C94D5070C9447085F3FE4F3983E84
S1131240D4F3869577956795B795F795E7959F5F5E
S1131250C1F7FE2B880F911D9695879597F90895F0
S11312609F3F31F0915020F4879577956795B79516
S1131270880F911D9695879597F90895CF93DF93DD
S1131280FC01828D80FD1EC093898489981309C056
S1131290828D8160828F828D8D7F828F148A138AE2
S11312A011C0A081B181C685D785838991E0980F4B
S11312B0938BC80FD11D88818C9393898589981746
S11312C008F0138ADF91CF910895FC01A081B181C8
S11312D08C91828B838D80FF04C0A081B18182892F
S11312E08C93A089B189868991E0980F968BA80F79
S11312F0B11D82898C939689818D981708F0168A7E
S113130096898789981318C0828D8860828F82A1FC
S1131310813031F48689808F828D8460828F089534
S113132086898F5F878B2789818D30E090E00197D4
S1131330821793070CF4178A808D882389F0878994
S1131340908D890F918D981710F4918D891B968932
S1131350981306C0828D8460828F8689808F089559
S1131360838D8E7109F441C0838D84FF0EC0828900
S1131370883059F486898250868B808991892689A0
S1131380FC01E20FF11D10820895838D82FF06C0D7
S1131390828921E08D3019F020E001C020E0838DA6
S11313A081FF04C082898A3009F421E0838D83FFA0
S11313B015C08689823090F080899189A689B0E031
S11313C01297A80FB91F9C9182898D3019F49A3015
S11313D029F406C08A3011F49D3011F0222329F03B
S11313E0828D8460828F8689808F0895FC010097A6
S11313F0A9F163FF06C0A681B7818C9188608C93A4
S113140005C0A681B7818C91877F8C9364FF06C049
S1131410A681B7818C9180618C9305C0A681B78128
S11314208C918F7E8C93A681B7818C9183FF04C0AD
S1131430828D8161828F03C0828D8F7E828FA6818F
S1131440B7818C9184FF05C0828D8062828F80E099
S11314500895828D8F7D828F80E008958FEF0895A7
S11314600F931F93CF93DF93EC01062F142F009754
S113147031F1611109C088899989892B29F08889FA
S113148099890E948B0D06C0802F90E00E94F30C76
S1131490888B998B111109C08E859F85892B29F022
S11314A08E859F850E948B0D06C0812F90E00E943F
S11314B0F30C8E879F87098F1D8B80E001C08FEF0F
S11314C0DF91CF911F910F910895FC01603C29F5A4
S11314D080EC858F80EA98E08083918381EA98E0AC
S11314E08283938383EA98E08483958384EA98E0F3
S11314F08683978385EA98E08087918786EA98E0D7
S11315008287938787EA98E084879587E0E4F6E00A
S113151080818860808380E008958FEF08952F9202
S11315203F924F925F926F927F928F929F92AF926F
S1131530BF92CF92DF92EF92FF920F931F93CF93BC
S1131540DF931F92CDB7DEB73C0119012A01C9828E
S1131550DC0154961C92549753961C9253975A96B6
S11315601C920E94650A88230CF47CC0D301149653
S1131570ED91FC91159700831696ED91FC911797C8
S113158010821896ED91FC9119978F89A82A8A28C0
S1131590808224E62E9DC0012F9D900D11246C01A4
S11315A0E12CF12CB9816B2F772767FD7095872F7C
S11315B0972F0E9476079B01AC0160E070E080E009
S11315C090E40E940F0C9B01AC0160E070E080E8A5
S11315D09FE30E9499064B015C01D701C601880F65
S11315E0991FAA1FBB1F880F991FAA1FBB1F8C011D
S11315F09D01000F111F221F331FC901B801620D85
S1131600731D841D951DA9019801220F331F441FCA
S1131610551F0E94AF0CCA01B9010E9474079B01B7
S1131620AC01C501B4010E94C30820E030E040E8E9
S11316305FE30E9427060E944507D3011A96ED91A5
S1131640FC911B9760831C96ED91FC911D97662776
S11316507F70C980CC0CCC0CCC0CCC0CC72AC082BB
S113166080E001C08FEF0F90DF91CF911F910F9118
S1131670FF90EF90DF90CF90BF90AF909F908F90AE
S11316807F906F905F904F903F902F9008950F93AD
S11316901F93CF93DF938C01EB01809140008770FF
S11316A0823061F030F4882309F446C0813081F03F
S11316B0AFC08330B9F08430F9F0AAC080E09DE770
S11316C0A0E0B0E0F80180839183A283B3833DC09E
S11316D080E098E4A8EEB1E0F80180839183A283CE
S11316E0B38333C080E094E2A4EFB0E0F8018083D8
S11316F09183A283B38329C025E530E0D9018C917D
S113170080E894E8AEE1B0E0F80180839183A2839D
S1131710B383D9018C91A82FAF7109F4A1E0B0E093
S113172020E834E84EE150E00E94D90CF8016083CF
S113173071838283938309C080E894E8AEE1B0E0CA
S1131740F80180839183A283B383809141008C77D5
S113175090E09695879596958795019781329105A6
S113176028F48A549F4FFC010C94D10C21E030E002
S113177040E050E02CC024E030E040E050E027C0DE
S113178028E030E040E050E022C020E130E040E0DA
S113179050E01DC020E230E040E050E018C020E4FA
S11317A030E040E050E013C020E830E040E050E09A
S11317B00EC020E031E040E050E009C020E032E01B
S11317C040E050E004C022E030E040E050E080918E
S11317D0410081FF09C0220F331F441F551F220FF0
S11317E0331F441F551F06C080FF04C0220F331F40
S11317F0441F551FD8016D917D918D919C910E943C
S1131800AF0C288339834A835B8381E090E002C074
S11318108FEF9FEFDF91CF911F910F910895FA0100
S1131820EE0FFF1F309621053105A1F161157105F9
S113183061F48038BFE39B0749F1689490388105CF
S113184061F08038BFEF9B0741F099234AF5FF3FD1
S1131850E1053105210519F1E8940894E795D901CA
S1131860AA2329F4AB2FBE2FF85FD0F310C0FF5F7B
S113187070F4A695E0F7F73950F019F0FF3A38F410
S11318809F779F930DD00F9007FC9058089546F0D2
S11318900C94DB0760E070E080E89FE308954FE775
S11318A09F775F934F933F932F930E94670C2F91E1
S11318B03F914F915F910E94C3080C94130716F057
S11318C00C9430090C94DB0768940C94D5070E949F
S11318D02C08A8F39923C1F3AEF3DF93CF931F939E
S11318E00F93FF92C92FDD2788232AF02197660FD3
S11318F0771F881FDAF720E030E040E85FEB9FE3D2
S1131900883920F0803E38F021968F770E9428068F
S1131910EEEAF1E004C00E942806EBEDF1E00E943B
S1131920DE078B01BE01EC01FB2E6F577109759523
S1131930771F880B990B0E94760728E132E741E371
S11319405FE30E94D608AF2D9801AE01FF900F917E
S11319501F91CF91DF910E943F060C941308A1E2DE
S11319601A2EAA1BBB1BFD010DC0AA1FBB1FEE1F15
S1131970FF1FA217B307E407F50720F0A21BB30B60
S1131980E40BF50B661F771F881F991F1A9469F7DC
S113199060957095809590959B01AC01BD01CF0138
S11319A00895EE0FFF1F881F8BBF0790F691E02D5F
S11319B019940E94E40CA59F900DB49F900DA49FD0
S11319C0800D911D11240895A29FB001B39FC00101
S11319D0A39F700D811D1124911DB29F700D811D57
S11319E01124911D08950F931F93CF93DF93823099
S11319F0910510F482E090E0E0919220F091932020
S1131A0020E030E0A0E0B0E0309719F1408151814E
S1131A100281138148175907C8F08417950769F4A0
S1131A20109731F012960C93129713961C9327C0BB
S1131A30009392201093932022C02115310519F0B0
S1131A404217530718F49A01BD01EF01DF01F801B1
S1131A50DBCF21153105F9F0281B390B2430310572
S1131A6080F48A819B816115710521F0FB018283D9
S1131A70938304C08093922090939320FE01329626
S1131A8044C0FE01E20FF31F819391932250310968
S1131A90288339833AC02091902030919120232BC0
S1131AA041F4209102203091032020939020309320
S1131AB0912020910020309101202115310541F41D
S1131AC02DB73EB74091042050910520241B350BBF
S1131AD0E0919020F0919120E217F307A0F42E1BDF
S1131AE03F0B2817390778F0AC014E5F5F4F24177E
S1131AF0350748F04E0F5F1F40939020509391207C
S1131B008193919302C0E0E0F0E0CF01DF91CF91A7
S1131B101F910F910895CF93DF93009709F481C02B
S1131B20FC01329712821382A0919220B0919320EB
S1131B30109781F420813181820F931F209190208E
S1131B40309191202817390751F5E0939020F093B4
S1131B50912067C0ED0120E030E0CE17DF0740F4AC
S1131B604A815B819E0141155105F1F0EA01F5CFEF
S1131B70C283D38340815181840F951FC817D9072D
S1131B8059F488819981840F951F029680839183EB
S1131B908A819B81828393832115310529F4E09303
S1131BA09220F09393203DC0E901EA83FB8349919D
S1131BB05991C40FD51FEC17FD0761F48081918101
S1131BC0840F951F0296E90188839983828193810A
S1131BD08A839B83E0E0F0E012968D919C911397A9
S1131BE0009719F0FD01DC01F7CF8D919C911197BD
S1131BF09D012E5F3F4F820F931F209190203091C3
S1131C0091202817390769F4309729F4109292200B
S1131C101092932002C012821382A0939020B0935A
S10F1C209120DF91CF910895F894FFCF3C
S1131C2C000094202000CDCC4C3FCDCC4C3F000088
S1091C3C003F0000003F20
S9030000FC
